:107000009EC00000FCC00000FAC00000F8C00000F4
:10701000F6C00000F4C00000F2C00000F0C00000A4
:10702000EEC00000ECC00000E9C20000E8C00000B3
:10703000E6C00000E4C00000E2C00000E0C00000C4
:10704000DEC00000DCC00000DAC00000D8C00000D4
:10705000D6C00000D4C00000D2C00000D0C00000E4
:10706000CEC00000CCC00000CAC00000C8C00000F4
:10707000C6C00000C4C00000C2C00000C0C0000004
:10708000BEC00000BCC00000BAC00000B8C0000014
:10709000B6C00000B4C00000B2C00000B0C0000024
:1070A000AEC00000ACC00000AAC0000009023E0053
:1070B00002010080320904000001020201000524DF
:1070C00000100104240202052406000107058103C3
:1070D0000800FF09040100020A000000070502027F
:1070E0004000010705830240000112010002020076
:1070F00000084123410005020102DC01220348008F
:107100006F006F0064004C006F0061006400650058
:107110007200320020004C00750066006100000023
:107120001803410072006400750069006E006F0072
:1071300020004C004C00430000000403090411240B
:107140001FBECFEFDAE0DEBFCDBF2091FE0A109266
:10715000FE0A909100801092008084B714BE0FB692
:10716000F894A895309160003861309360001092D7
:1071700060000FBE209A559A3F9A5D982898F0E0DB
:10718000E0E0459154914F3F5F4F21F181FF18C0DE
:10719000273701F19737F1F087E78093FE0A809354
:1071A00000808FEF9EE924E2815090402040E1F77B
:1071B00000C000001092FE0A1092008083D00AC026
:1071C00080FF02C07FD006C083FF04C0273711F0C4
:1071D0009737C1F711E0A0E2B1E0E4EFFDE702C0AC
:1071E00005900D92AC32B107D9F721E0ACE2B1E0E5
:1071F00001C01D92AC33B207E1F7AED2F9C500CFA2
:107200008091330187FF11C08091E80082FF06C0A2
:107210008091E8008B778093E80003C08BB58111E3
:10722000F3CF08958BB58823E1F38091E80080FFC8
:10723000F9CF8091E8008E77EECF8093E900EBEEF6
:10724000F0E0808181608083EDEEF0E01082609359
:10725000EC0040838091EE00881F8827881F0895E6
:1072600093E09093E9009BB5992391F09091E80009
:1072700090FFF9CF8093F10081E0860D8F3310F4F9
:10728000682E0895612C8091E8008E778093E80045
:10729000089582E08093E9008091E80085FF03C0B3
:1072A0008091F10008958091E8008B778093E80049
:1072B0008BB5882329F08091E80082FFF9CFECCFCD
:1072C00080E0089547985D98289820985598F0E0B8
:1072D000E0E009945F927F928F929F92AF92BF926B
:1072E000CF92DF92EF92FF920F931F93CF93DF9392
:1072F000612CCFDFC82F853461F5109222018DE01B
:10730000AFDF662079F083E08093E9008BB58823B6
:1073100089F08091E80080FFF9CF8091E8008E77B6
:107320008093E80082E08093E9008091E8008B7709
:107330008093E800DF91CF911F910F91FF90EF9024
:10734000DF90CF90BF90AF909F908F907F905F9095
:10735000089588E88C0F823010F0C43511F499DF5D
:10736000CECFC03561F2CC3451F2C43721F484E47D
:1073700077DF80E0C5CF89E5C13609F4C1CFC134DC
:10738000D1F487DFC82F85DF2C2F30E0322F222762
:10739000330F90E0880F991F822B932B092E000C3E
:1073A000AA0BBB0B80932F0190933001A093310166
:1073B000B0933201A4CF83E5C03709F4A1CFC33520
:1073C00049F4C3E2D1E089914BDF21E0CA32D20710
:1073D000D1F797CFC63521F481E342DF80E390CF28
:1073E000C33731F487E83CDF85E93ADF8EE188CFA7
:1073F000C536B9F4F0E0E0E083E095E08093570013
:10740000E89507B600FCFDCF90935700E89507B6C6
:1074100000FCFDCFE058FF4FE11520E7F20771F7C0
:107420006ECF89E0E1E0F0E0C23779F089E0F0E08A
:10743000E0E0C63451F089E0E3E0F0E0CE3429F03A
:10744000C13539F489E0E2E0F0E08093570084919F
:1074500057CFC23631F489E503DF80E001DF80E8F1
:107460004FCFC23419F0C73609F0C4C012DF082F5D
:1074700010E0102F00270DDF082B0BDFD82F8BEB30
:107480008D0F823010F08FE33BCFC73609F042C03A
:1074900081E180935700E895C0E0BB24B39401508C
:1074A000110908F42ECFC0902F01D0903001E09048
:1074B0003101F0903201D634B9F4EC2FF0E0EC2930
:1074C000FD298491CDDECC2369F082E0C80ED11C69
:1074D000E11CF11CC0922F01D0923001E0923101E9
:1074E000F0923201CB25DBCFD701C601B695A79527
:1074F0009795879567D4B4DEE2E0CE0ED11CE11CEF
:10750000F11CC0922F01D0923001E0923101F09233
:107510003201C5CF80902F0190903001A0903101B1
:10752000B0903201D63441F483E0F40180935700E7
:10753000E89507B600FCFDCF712CC0E055245394AC
:1075400024C0D63409F033C0CC2371F1C0902F0190
:10755000D0903001E0903101F09032019ADE982F06
:10756000872DF6010C0150925700E8951124F2E0A6
:10757000CF0ED11CE11CF11CC0922F01D092300122
:10758000E0923101F0923201C52501501109C8F68F
:10759000D63409F0B4CE85E0F40180935700E89525
:1075A00007B600FCFDCFABCE74DE782EEDCF71DEDA
:1075B000682F80912F0190913001A0913101B091FD
:1075C0003201B695A7959795879504D480912F01A0
:1075D00090913001A0913101B09132010296A11D2C
:1075E000B11D80932F0190933001A0933101B0938E
:1075F0003201CBCFCB3109F484CE45CF1F920F920D
:107600000FB60F9211242F933F934F935F936F9375
:107610007F938F939F93AF93BF93EF93FF9380914B
:10762000DA0080FF16C08091D80080FF12C08091E0
:10763000DA008E7F8093DA008091D90080FF81C0CC
:1076400080E189BD82E189BD09B400FEFDCF81E002
:107650008BBD8091E10080FF16C08091E20080FF29
:1076600012C08091E2008E7F8093E2008091E20060
:1076700080618093E2008091D80080628093D8007E
:1076800019BC85E08BBD8091E10084FF25C080910D
:10769000E20084FF21C080E189BD82E189BD09B497
:1076A00000FEFDCF8091D8008F7D8093D80080911F
:1076B000E1008F7E8093E1008091E2008F7E8093D5
:1076C000E2008091E20081608093E20080913B01C2
:1076D0008823D1F184E08BBD8091E10083FF20C03D
:1076E0008091E20083FF1CC08091E100877F80933E
:1076F000E10082E08BBD10923B018091E1008E7F22
:107700008093E1008091E2008E7F8093E20080917F
:10771000E20080618093E20042E060E080E08DDD85
:10772000FF91EF91BF91AF919F918F917F916F9159
:107730005F914F913F912F910F900FBE0F901F902F
:10774000189519BC1BBC85CF8091E30087FD02C052
:1077500081E0C1CF83E0BFCFCF93DF93CDB7DEB75A
:10776000AA970FB6F894DEBF0FBECDBF80E890E0B9
:107770000FB6F89480936100909361000FBE91E082
:1077800095BF82E085BF8091D8008F7E8093D8001E
:107790008091D70081608093D70084E082BF90936E
:1077A0002C018091D8008E7F8093D8001092E20047
:1077B0001092DA001092E1008091D8008F778093C8
:1077C000D8008091D80080688093D8008091D8003C
:1077D0008F7D8093D80019BC1BBC10923B01809117
:1077E000E0008B7F8093E0008091D80081608093DF
:1077F000D80042E060E080E020DD8091E1008E7FF3
:107800008093E1008091E20081608093E2008091AA
:10781000E20088608093E2008091E0008E7F809398
:10782000E0008091D80080618093D80083E085BD1E
:1078300088E38AB9209A5C9A5A9A7894712C5CEF02
:10784000852E50E7952E00E211E76AE3E62E61E708
:10785000F62ECC24C394D12CB12CA12C512C44E075
:10786000342E4BB41092E9008091E80083FF5CC095
:10787000E3E3F1E08091F100819321E0EB33F20743
:10788000C9F780913301982F9F77913251F59091EC
:107890003401903209F062C0813219F58091E8001C
:1078A000877F8093E8008091E80082FF17C0809175
:1078B000F1008091F1008091F1008091F1008091C0
:1078C000F1008091F1008091F1008091E8008B77C8
:1078D0008093E80095DC1EBA1ABC03C08BB58111F9
:1078E000E2CF8091E80083FF11C080913301909135
:1078F0003401953009F4E9C008F044C0913009F42E
:10790000ABC008F489C0933009F4A6C08091E800A8
:1079100083FF0AC08091E800877F8093E800809110
:10792000EB0080628093EB00809122018111EFC116
:107930008FE99FE00197F1F700C000008091E0001F
:1079400081608093E00088E19CE00FB6F894A895F0
:10795000809360000FBE90936000FFCF923209F0D9
:10796000C0CF813209F0BDCF8091E800877F80933E
:10797000E80046DC8091350180FF02C05C98B1CF01
:107980005C9AAFCF983009F48CC1993009F496C154
:10799000963009F0BBCF8058823008F0B7CF809185
:1079A0003501909136018C3DF3E09F0709F0F7C057
:1079B00023E02A838AE289834FB7F894DE01139685
:1079C00080E09EE051E2E92FF0E050935700E4910F
:1079D00080FF03C0E295EF709F5FEF702E2F30E0C5
:1079E000EA3008F494C0295C3F4F2D933D938F5F9C
:1079F000843149F74FBF8091E800877F8093E8008A
:107A00008091390190913A018A32910508F0C4C001
:107A100040E0FE013196A2C08038E1F0823809F0E2
:107A200075CF809137018F708093E9008091EB00D2
:107A300085FB882780F91092E9009091E800977FF4
:107A40009093E8008093F1001092F1008091E8009B
:107A50008E7724C080E0F1CF282F2D7F09F056CFFC
:107A6000823009F053CF80913501811112C080918D
:107A700037018F7009F44ACF8093E9002091EB0021
:107A800020FF07C0933071F48091EB0080628093F7
:107A9000EB001092E9008091E800877F8093E80076
:107AA000AFDB34CF9091EB0090619093EB00F60147
:107AB00002C0EE0FFF1F8A95E2F7E093EA001092F2
:107AC000EA008091EB008860E2CF81111FCF8091A6
:107AD0003501282EE89427F88091E30080788229E8
:107AE0008093E3008091E800877F8093E80088DB43
:107AF0008091E80080FFFCCF8091E3008068809354
:107B0000E30083E0211001C082E08BBDFFCE205D49
:107B10003F4F6BCF2BB5222391F1253081F120917E
:107B2000E80023FD2CC02091E80022FD1BC020911D
:107B3000E80020FF13C03091F3002091F20000977D
:107B400019F02830310508F141E02830310509F0FD
:107B500040E02091E8002E772093E8000097D1F6CE
:107B60004111D8CF8091E80082FD09C08BB58823F0
:107B700031F0853021F08091E80083FFF3CF8091D0
:107B8000E8008B778093E800C1CE41914093F100EB
:107B900001972F5F3F4FD3CF8AE290E039CF282F54
:107BA000892F99278230910509F447C083309105C8
:107BB00039F122E130E0EAEEF0E7019709F0A6CED4
:107BC0008091E800877F8093E8008091390190914F
:107BD0003A012817390708F4C90140E0009791F5E8
:107BE000411130C08091E80082FDC9CF8BB5882358
:107BF00031F2853021F28091E80083FFF3CFBFCFCF
:107C000021110AC0F701249130E0EAE3F1E72115E0
:107C1000310509F47BCED4CF213031F4F801249121
:107C200030E0E0E2F1E7F3CF223009F06FCEF4016B
:107C3000249130E0ECEFF0E7EACF2EE330E0ECEA1D
:107C4000F0E7BECF2BB5222309F499CF253009F4F4
:107C500096CF2091E80023FD92CF2091E80022FDED
:107C6000C1CF2091E80020FFB9CF3091F3002091DF
:107C7000F200009719F02830310558F041E0283023
:107C8000310509F040E02091E8002E772093E800CC
:107C9000A5CF44914093F100319601972F5F3F4F5C
:107CA000E8CF803809F032CE8091E800877F80935A
:107CB000E80080913B018093F100C8CE811126CE6F
:107CC00020903501F1E0F21508F420CE8091E80013
:107CD000877F8093E80020923B0192DA222071F0A6
:107CE0003BBC42E061EC81E0A8DA42E361E883E07A
:107CF000A4DA42E360E882E0A0DA08CE8091E300F3
:107D000087FF03C084E08BBDECCF81E0FCCF809186
:107D10002D0190912E01019690932E0180932D01BB
:107D2000292F97FF02C02EEF291B220F281760F57D
:107D30004798A89B2BC091E095BB4FEF450D552070
:107D400011F05D982898711014C0F50185919491F7
:107D5000019679F080912001909121019C012150A0
:107D600031093093210120932001892B11F41092C5
:107D700022018BB5843061F0F4E04F121CC01EBAB2
:107D80001ABC5D9828986ACD479AD3CF452DF1CF7C
:107D900022E02093E9008091E800712C82FF0BC063
:107DA0008091F3007090F200711007C08091E8009C
:107DB0008B778093E800542E54CD5D9A289A8ADA06
:107DC00041E0F9CFF999FECF92BD81BDF89A99278C
:107DD00080B50895262FF999FECF1FBA92BD81BDB7
:107DE00020BD0FB6F894FA9AF99A0FBE019608953D
:047DF000F894FFCF35
:0C7DF400581B014341544552494E3200D7
:087FF8000070000000DFFBDC5B
:040000030000700089
:00000001FF
