:1070000097C00000F5C00000F3C00000F1C0000010
:10701000EFC00000EDC00000EBC00000E9C00000C0
:10702000E7C00000E5C00000E8C20000E1C00000C9
:10703000DFC00000DDC00000DBC00000D9C00000E0
:10704000D7C00000D5C00000D3C00000D1C00000F0
:10705000CFC00000CDC00000CBC00000C9C0000000
:10706000C7C00000C5C00000C3C00000C1C0000010
:10707000BFC00000BDC00000BBC00000B9C0000020
:10708000B7C00000B5C00000B3C00000B1C0000030
:10709000AFC00000ADC00000ABC00000A9C0000040
:1070A000A7C00000A5C00000A3C0000009023E0068
:1070B00002010080320904000001020201000524DF
:1070C00000100104240202052406000107058103C3
:1070D0000800FF09040100020A000000070502027F
:1070E0004000010705830240000112011002020066
:1070F00000084123510005020102DC01140359007C
:1071000055004E00310030003100200042004C009C
:1071100000001803410072006400750069006E00F1
:107120006F0020004C004C004300000004030904E1
:1071300011241FBECFEFDAE0DEBFCDBF2091FE0AE3
:107140001092FE0A909100801092008084B714BEC5
:107150000FB6F894A89530916000386130936000C4
:10716000109260000FBE209A559A3F9A5D98289819
:10717000E0E0F0E0459154914F3F5F4F21F181FFF6
:1071800018C0273701F19737F1F087E78093FE0A9F
:10719000809300808FEF9EE924E281509040204050
:1071A000E1F700C000001092FE0A1092008082D029
:1071B0000AC080FF02C07ED006C083FF04C027370C
:1071C00011F09737C1F711E0A0E2B1E0EEE1FEE780
:1071D00002C005900D92AC32B107D9F721E0ACE2C4
:1071E000B1E001C01D92AC33B207E1F7B4D215C6CD
:1071F00007CF8091330187FF0FC08091E80082FDA7
:1072000004C08BB58111F9CF10C08091E8008B7755
:107210000AC08BB5882349F08091E80080FFF9CF40
:107220008091E8008E778093E80008958F708093B6
:10723000E900EBEEF0E0808181608083EDEEF0E02C
:1072400010826093EC0040838091EE00881F8827B5
:10725000881F089593E09093E9009BB5992391F0DE
:107260009091E80090FFF9CF8093F10081E0860DC6
:107270008F3310F4682E0895612C8091E8008E778A
:107280008093E800089582E08093E9008091E8000F
:1072900085FD0DC08091E8008B778093E8008BB569
:1072A000882339F08091E80082FFF9CFEFCF8091F9
:1072B000F100089547985D98289820985598E0E047
:1072C000F0E009942F923F924F925F928F929F929B
:1072D000AF92BF92CF92DF92EF92FF920F931F93E4
:1072E000CF93DF93612CCFDFC82F853419F4109230
:1072F000220107C088E88C0F823010F0C43521F4D9
:10730000C2DF8DE0A7DF4FC1C035D9F3CC34C9F35C
:10731000C43721F484E49EDF80E0F4CFC13611F459
:1073200089E5F0CFC134D1F4AEDFC82FACDF2C2F0C
:1073300030E0322F2227330F90E0880F991F822BE5
:10734000932B092E000CAA0BBB0B80932F0190935B
:107350003001A0933101B0933201D3CFC03711F483
:1073600083E5D0CFC33551F4C3E2D1E00AE211E0A6
:10737000899170DF0C171D07D9F715C1C63521F4A7
:1073800081E368DF80E3BECFC33731F487E862DF93
:1073900085E960DF8EE1B6CFC536B9F4E0E0F0E014
:1073A00083E095E080935700E89507B600FCFDCF99
:1073B00090935700E89507B600FCFDCFE058FF4FCB
:1073C000E11520E7F20771F79CCFC23719F4E1E02D
:1073D000F0E00EC0C63419F4E0E0F0E009C0CE34AD
:1073E00019F4E3E0F0E004C0C13539F4E2E0F0E084
:1073F00089E080935700849185CFC23631F489E5C6
:1074000029DF80E027DF80E87DCFC23419F0C7365E
:1074100009F0C6C038DF082F36DFD82F34DF182F29
:107420008BEB810F823010F08FE36CCF8D2F90E0CB
:10743000902BC73609F042C021E120935700E89510
:10744000EC01B12C01E0209709F4ADC0C0902F01F0
:10745000D0903001E0903101F09032011634B9F44F
:10746000EB2DF0E0EC29FD298491F4DEBB2069F0DE
:1074700042E0C40ED11CE11CF11CC0922F01D0923D
:107480003001E0923101F0923201B02615C0D701EF
:10749000C601B695A79597958795A9D4DBDE52E0EE
:1074A000C50ED11CE11CF11CC0922F01D0923001FD
:1074B000E0923101F09232012197C5CF20902F0147
:1074C000309030014090310150903201163441F437
:1074D00023E0F10120935700E89507B600FCFDCFAB
:1074E000E12CF12CEC0101E0209709F44DC0163499
:1074F00039F5FF2009F180902F0190903001A09084
:107500003101B0903201BFDE2E2D30E0A901582BA1
:10751000F4010A0100935700E8951124F2E08F0E60
:10752000911CA11CB11C80922F0190923001A0925D
:107530003101B092320102C0A6DEE82EF02622C050
:10754000A2DE682F80912F0190913001A09131012E
:10755000B0913201B695A7959795879550D48091B3
:107560002F0190913001A0913101B091320102962A
:10757000A11DB11D80932F0190933001A093310183
:10758000B09332012197B0CF163409F0BACE85E01E
:10759000F10180935700E89507B600FCFDCFB1CE0E
:1075A000CB3109F041CF662079F083E08093E90088
:1075B0008BB5882389F08091E80080FFF9CF809116
:1075C000E8008E778093E80082E08093E900809164
:1075D000E8008B778093E800DF91CF911F910F91A6
:1075E000FF90EF90DF90CF90BF90AF909F908F90E3
:1075F0005F904F903F902F9008951F920F920FB67B
:107600000F9211242F933F934F935F936F937F9328
:107610008F939F93AF93BF93EF93FF938091DA0083
:1076200080FF19C08091D80080FF15C08091DA00DA
:107630008E7F8093DA008091D90080FF0AC080E1BC
:1076400089BD82E189BD09B400FEFDCF81E08BBD1B
:1076500002C019BC1BBC8091E10080FF16C0809164
:10766000E20080FF12C08091E2008E7F8093E200F2
:107670008091E20080618093E2008091D800806276
:107680008093D80019BC85E08BBD8091E10084FF18
:107690002DC08091E20084FF29C080E189BD82E194
:1076A00089BD09B400FEFDCF8091D8008F7D809305
:1076B000D8008091E1008F7E8093E1008091E2000C
:1076C0008F7E8093E2008091E20081608093E200EF
:1076D00080913B01882311F084E007C08091E30092
:1076E00087FD02C081E001C083E08BBD8091E10095
:1076F00083FF20C08091E20083FF1CC08091E100E5
:10770000877F8093E10082E08BBD10923B018091E6
:10771000E1008E7F8093E1008091E2008E7F809374
:10772000E2008091E20080618093E20042E060E04C
:1077300080E07CDDFF91EF91BF91AF919F918F91A0
:107740007F916F915F914F913F912F910F900FBE5D
:107750000F901F901895CF93DF93CDB7DEB7AC97FE
:107760000FB6F894DEBF0FBECDBF90E080E80FB635
:10777000F89480936100909361000FBE91E095BFF3
:1077800082E085BF8091D8008F7E8093D800809161
:10779000D70081608093D70084E082BF90932C0152
:1077A0008091D8008E7F8093D8001092E2001092D2
:1077B000DA001092E1008091D8008F778093D80092
:1077C0008091D80080688093D8008091D8008F7D08
:1077D0008093D80019BC1BBC10923B018091E00043
:1077E0008B7F8093E0008091D80081608093D800E7
:1077F00042E060E080E01ADD8091E1008E7F8093BE
:10780000E1008091E20081608093E2008091E200DB
:1078100088608093E2008091E0008E7F8093E0009A
:107820008091D80080618093D80083E085BD88E393
:107830008AB9209A5C9A5A9A789410E04BE3C42E45
:1078400041E0D42E5CEF252E50E7352E62E1462E26
:1078500061E7562E7CE2A72E71E7B72E8824839429
:10786000912C712C00E0E12CF12C2BB52BA7109260
:10787000E9008091E80083FF35C2E3E3F1E0809105
:10788000F1008193CE16DF06D1F780913301982F56
:107890009F779132D9F590913401903231F5813250
:1078A000A9F58091E800877F8093E8008091E80047
:1078B00082FD04C08BB58111F9CF28C08091F10001
:1078C0008091F1008091F1008091F1008091F100B0
:1078D0008091F1008091F1008091E8008B77809396
:1078E000E80087DC1EBA1ABC11C0923279F48132EA
:1078F00069F48091E800877F8093E8007ADC8091CA
:10790000350180FF02C05C9801C05C9A8091E8005C
:1079100083FFDAC18091330190913401953009F4ED
:1079200064C030F4913059F168F0933041F1CCC12A
:10793000983009F488C1993009F498C1963009F05B
:10794000C3C176C0803881F0823809F0BDC1809112
:1079500037018F708093E9008091EB0085FB8827C9
:1079600080F91092E90001C080E09091E800977FD3
:107970009093E8008093F1001092F10070C1282FDD
:107980002D7F09F0A1C1823009F09EC1809135019F
:10799000811125C0809137018F7009F495C18093C2
:1079A000E9002091EB0020FF1AC0933021F4809170
:1079B000EB00806212C09091EB0090619093EB001D
:1079C000F40102C0EE0FFF1F8A95E2F7E093EA0090
:1079D0001092EA008091EB0088608093EB00109297
:1079E000E9008091E800877F3DC181116DC19091D0
:1079F00035019F778091E3008078892B8093E300A5
:107A00008091E800877F8093E8009CA7F2DB9CA52B
:107A10008091E80080FFFCCF8091E3008068809334
:107A2000E300911102C082E001C083E08BBD4CC134
:107A30008058823008F048C180913501909136011C
:107A40008C3DF3E09F0709F07AC023E02A838AE2A5
:107A500089834FB7F894DE01139620E03EE0E32FD0
:107A6000F0E081E280935700E49120FF03C0E295AB
:107A7000EF703F5FEF708E2F90E0EA3010F0C79606
:107A800001C0C0968D939D932F5F243141F74FBF66
:107A90008091E800877F8093E80020913901309140
:107AA0003A012A32310510F02AE230E040E0FE01CE
:107AB00031962115310581F18BB5882309F4BDC0BC
:107AC000853009F4BAC08091E80083FDB6C080918A
:107AD000E80082FD2FC08091E80080FFEACF40914E
:107AE000F3008091F20090E0942B2115310551F0C4
:107AF0008830910538F441914093F10021503109CB
:107B00000196F3CF41E0089709F040E08091E8004A
:107B10008E778093E800CDCF4111CECF0BC08BB5CF
:107B2000882309F48AC0853009F487C08091E80071
:107B300083FD83C08091E80082FFF1CF7EC0282FB3
:107B4000892F99278230910539F08330910549F0CA
:107B5000019709F0B9C03EC18EE390E0ECEAF0E78E
:107B60001BC0211106C0F501849190E0ECE2F1E721
:107B700010C0213031F4F201849190E0E2E1F1E7AC
:107B800008C0223009F0A0C0F101849190E0ECEF30
:107B9000F0E7009709F498C02091E800277F209330
:107BA000E8002091390130913A018217930708F4D7
:107BB0009C0140E02115310581F18BB5882309F442
:107BC0003CC08530D1F18091E80083FD36C08091C2
:107BD000E80082FD2EC08091E80080FFEBCF40914D
:107BE000F3008091F20090E0942B2115310559F0BB
:107BF0008830910540F444914093F1003196215032
:107C000031090196F2CF41E0089709F040E08091F8
:107C1000E8008E778093E800CDCF4111CECF09C028
:107C20008BB5882351F0853041F08091E80083FDC9
:107C300004C08091E80082FFF3CF8091E8008B7749
:107C40008093E80041C0803809F03EC08091E80090
:107C5000877F8093E80080913B018093F1008091C1
:107C6000E8008E778093E800C4DA2EC081112CC022
:107C70008091350190913601992702972CF58091DA
:107C8000E800877F8093E8008091350180933B0175
:107C90008CA7AFDA8CA5882319F0F4E0FBBD08C0EF
:107CA0008091E30087FD02C081E001C084E08BBDCC
:107CB00042E061EC81E0BADA42E361E883E0B6DAFF
:107CC00042E360E882E0B2DA8091E80083FF0AC014
:107CD0008091E800877F8093E8008091EB008062CC
:107CE0008093EB0080912201811116C08FE99FE003
:107CF0000197F1F700C000008091E000816080935F
:107D0000E0009CE088E10FB6F894A89580936000AD
:107D10000FBE90936000FFCF20912D0130912E0176
:107D20002F5F3F4F30932E0120932D01832F37FF7C
:107D300002C08EEF831B3327880F90E082179307D2
:107D400014F4479801C0479AA89B21C081E085BBE5
:107D50004FEF400F01115D985FEF570D711028989C
:107D6000111117C0F70185919491019691F08091BE
:107D70002001909121019C01215031093093210172
:107D800020932001892B29F41092220102C0572D43
:107D9000402F8BB5843031F02BA52430B1F0752EF7
:107DA000042F63CD32E03093E9008091E80082FF38
:107DB0001CC08091F3001091F200111110C080914D
:107DC000E8008B778093E80010C01EBA1ABC5D985B
:107DD000289847CD82E190E0EAEEF0E7DDCE5D9AAB
:107DE000289A70DA51E041E0DACF10E0D8CFF99963
:107DF000FECF92BD81BDF89A992780B50895262FB0
:107E0000F999FECF1FBA92BD81BD20BD0FB6F8947F
:0E7E1000FA9AF99A0FBE01960895F894FFCFE2
:0C7E1E00581B014341544552494E3200AC
:087FF8000070000000DFFBDC5B
:040000030000700089
:00000001FF
